:10000000A04700201D4B010079DF01004D4B01008E
:100010004D4B01004D4B01004D4B01000000000015
:10002000000000000000000000000000CD480100BA
:100030004D4B01000000000079480100ADDB0100DC
:10004000DD4A010007F70100DD4A0100DD4A010039
:10005000DD4A0100DD4A0100DD4A0100DD4A010000
:10006000CFF60100DD4A0100DD4A0100EDF6010096
:10007000DD4A0100DD4A0100DD4A0100DD4A0100E0
:10008000DD4A0100DD4A0100DD4A0100DD4A0100D0
:10009000DD4A0100DD4A0100DD4A0100DD4A0100C0
:1000A000DD4A0100DD4A0100DD4A0100DD4A0100B0
:1000B000DD4A0100DD4A0100DD4A0100DD4A0100A0
:1000C000DD4A0100DD4A0100DD4A0100DD4A010090
:1000D000DD4A0100DD4A0100DD4A0100DD4A010080
:1000E00053B94AB9002908BF00281CBF4FF0FF319F
:1000F0004FF0FF3000F06CB9ADF1080C6DE904CEA3
:1001000000F006F8DDF804E0DDE9022304B07047F2
:100110002DE9F047089E0D4604468E46002B40F020
:1001200082808A42174646D9B2FA82F24AB1C2F1B7
:10013000200105FA02F320FA01F1974041EA030E8B
:1001400094404FEA1748230CBEFBF8FCB9B208FBF9
:100150001CEE43EA0E430CFB01F098420AD9FB184F
:100160000CF1FF3580F01681984240F21381ACF11A
:10017000020C3B441B1AA4B2B3FBF8F008FB10338B
:1001800044EA034400FB01F1A14209D93C1900F102
:10019000FF3380F00181A14240F2FE8002383C44EE
:1001A000641A40EA0C4000211EB1D4400023C6E985
:1001B0000043BDE8F08702B9FFDEB2FA82F2002AFE
:1001C0004FD1CB1B4FEA174E1FFA87F80121B3FB23
:1001D000FEFC250C0EFB1C3345EA034508FB0CF323
:1001E000AB4207D97D190CF1FF3002D2AB4200F2CD
:1001F000E7808446ED1AA3B2B5FBFEF00EFB105566
:1002000043EA054408FB00F8A04507D93C1900F172
:10021000FF3302D2A04500F2D7801846A4EB0804B1
:1002200040EA0C40C0E78B4208D9002E00F0AF80B6
:100230000021C6E900050846BDE8F087B3FA83F15E
:1002400000294BD1AB4202D3824200F2B780841A1C
:1002500065EB030301209E46002EAAD0C6E9004E9E
:10026000A7E7C2F1200C01FA02F3974020FA0CF044
:100270004FEA174E21FA0CFC1843BCFBFEF1050CAB
:100280000EFB11CC1FFA87F845EA0C4501FB08F379
:10029000AB4204FA02F409D97D1901F1FF3C80F068
:1002A0008B80AB4240F2888002393D44EB1A85B224
:1002B000B3FBFEF00EFB103345EA034500FB08F3E9
:1002C000AB4207D97D1900F1FF3C71D2AB426FD927
:1002D00002383D44EB1A40EA014178E7C1F1200CB5
:1002E0008B4022FA0CF71F4320FA0CF405FA01F3B5
:1002F0004FEA174E25FA0CF51C43230CB5FBFEF90B
:100300001FFA87F80EFB195543EA054509FB08FA61
:10031000AA4502FA01F200FA01F308D97D1909F1A0
:10032000FF3047D2AA4545D9A9F102093D44A5EBC2
:100330000A05A4B2B5FBFEF00EFB105544EA0544D5
:1003400000FB08F8A04507D93C1900F1FF352DD274
:10035000A0452BD902383C4440EA0940A4EB0804EC
:10036000A0FB02894C45C6464D4619D316D05EB156
:10037000B3EB0E0264EB050404FA0CFCCA404CEA31
:100380000202CC40C6E900240021BDE8F0873146D6
:1003900030460EE7AC46EDE6184601E74345E6D2A7
:1003A000B8EB020E69EB07050138E0E72846D3E712
:1003B00060468FE78146BAE7614677E708464BE734
:1003C000ACF1020C3D4415E702383C4426E700BF7F
:1003D000704700BFF8B515460A4A1C4656682EB14C
:1003E00001B02A46B446BDE8F040604700208DF8D1
:1003F000000068460EF0BEFC9DF80000281A207030
:100400000020F8BD0000002001480078704700007F
:100410000800002004490A78904201D30020704768
:10042000496801EB40107047080000202DE9F843AF
:100430001546044600F10802C81C4142DFF89CC082
:100440001F46281A0023089EBCEB050C9B4104D2D2
:1004500040F2E151702003F0F9F8214B994204DD9C
:1004600040F2E251702003F0F1F81E4B994204DA99
:1004700040F2E351702003F0E9F81B498842A8BF1D
:100480001A4903DA0028B8BF174900DA4018214694
:1004900002F04EFD206820F07F41E819C01C216069
:1004A000002E08BF7A3008D0012E08BF453004D096
:1004B00040F28661702003F0C9F86A46211D02F0FF
:1004C00037FD9DF9000000286068C4BF401C6060D3
:1004D00020F07F406060BDE8F8830000FF7F841E4D
:1004E0000020A10700E05EF80080841E00807BE110
:1004F00070B50546202A27D019481A4C00EB831CFA
:100500000CEB420004EB8303202922D00CEB4101C9
:1005100040784C784870204601460CEB41009142EF
:1005200005704078F8D193F82220202A1ABF0CEBEE
:100530004202547083F8214020220CEB410C8CF8CD
:10054000012083F8221070BD4FF42271702003F057
:100550007DF893F82040407883F82000DBE7000026
:10056000B40C0020340D00202DE9F34F87B0044671
:10057000002002909E48089F9E4E00EB870003904B
:1005800090F820502020E9460DF104088DF8000075
:1005900006F5207A202D18BF0AEB871B32D000BF4A
:1005A00005EB850006EB8000011D80682268101AAB
:1005B0000002C21700EB1260001223D46089D0B190
:1005C0004889C0B9084600F0DBFC05AA04A902F07E
:1005D000AFFC9DF914000028CCBF0120002000F1E1
:1005E000330104982268101A0002C21700EB12604F
:1005F0000012884206DB0BEB450089F80050457875
:10060000202DCDD199F8000088F80000A146202DBA
:100610001CBF794800EB871B00F0E58005EB8501E6
:1006200006EB810AD9F80420DAF804104846891A42
:100630000902CA1701EB12610AF1040709121FD45B
:100640007989002900F0CF804189002940F0CB80D2
:1006500000F096FC05AA04A902F06AFC9DF91400BA
:100660000028CCBF0120002000F1330104983A6833
:10067000101A0002C21700EB1260001288427DDAE5
:1006800088F800509AF8100099F80C10884205D9A3
:100690000BEB45004578202DC0D1A4E09DF8040067
:1006A000D4E9002100EB800006EB8000891A806805
:1006B00020F07F42084420F07F40C4E90020012060
:1006C00002904B4890F82B0018B109B00020BDE80B
:1006D000F08F0398DDF820806F4690F8205020209E
:1006E0000DF1040A8DF80000202D1CBF424800EBDC
:1006F000881930D005EB850006EB8000011D80686D
:100700002268101A0002C21700EB1260001222D4F5
:100710006089D0B14889C0B9084600F031FC05AA0B
:1007200004A902F005FC9DF914000028CCBF0120AB
:10073000002000F1330104982268101A0002C21749
:1007400000EB12600012884205DB09EB45003D70AA
:100750004578202DCED138788AF800002746202D04
:100760001CBF254800EB881B3DD005EB850106EB3F
:100770008109384609F104087A6800E033E0D9F8C5
:100780000410891A0902CA1701EB126109121DD45B
:10079000B8F80A1039B3418929BB00F0F1FB05AA6A
:1007A00004A902F0C5FB9DF914000028CCBF01206C
:1007B000002000F133010498D8F80020101A00023C
:1007C000C21700EB1260001288420CDA8AF800505F
:1007D00099F81010387B81427FF660AF0BEB450033
:1007E0004578202DC1D1029809B0BDE8F08F0000F6
:1007F000340D0020340A0020B40C00202DE9F04F05
:10080000044647480E4600EB8600464F90F82050BD
:10081000202083B098469246107007F52079202D4D
:1008200018BF09EB861B31D005EB850007EB800074
:10083000011D80682268101A0002C21700EB1260C6
:10084000001223D46089D0B14889C0B9084600F0AD
:1008500097FB01AA694602F06BFB9DF90400002892
:10086000CCBF0120002000F1330100982268101A4B
:100870000002C21700EB12600012884206DB0BEB8D
:1008800045008AF800504578202DCDD19AF8000017
:1008900088F80000202D18BF09EB861A3CD005EB24
:1008A000850107EB81096168D9F804202046511AB7
:1008B0000902CA1701EB126109F1040609121BD4DF
:1008C000718949B3418939BB00F05AFB01AA6946D5
:1008D00002F02EFB9DF904000028CCBF012000206F
:1008E00000F1330100983268101A0002C21700EBC1
:1008F0001260001288420FDA88F8005099F8100050
:10090000217B884203D803B00020BDE8F08F0AEBBA
:1009100045004578202DC2D103B00120BDE8F08FFD
:10092000340D0020340A00202DE9F74F4FF0000865
:1009300098B016460D46C34602F0A2F80446012DB3
:1009400018BF022D05D040F669114FF0700002F07B
:100950007DFEFF4901200860FE498968086000208B
:100960000690401E0890FC4906EB860001EB8003D0
:100970001B1D09AF0FCB87E80F0009A800F000FB93
:100980000790F548BDF82E90B0F81C03ADF8340080
:10099000B9F1000F14BF4FF0010A4FF0000A099897
:1009A0001290BAF1000F09D0EC4890F82C0028B949
:1009B00002F0E8FD002808BF012700D00027E84822
:1009C0000022149200781646012818BF032843D14C
:1009D000E348B0F80280A8EB09001490C1453BD26F
:1009E00003A8059017A81090079908F10300424248
:1009F000DFF870C3081A0023BCEB010173EB03019D
:100A000004D240F2E151702002F020FED6498A4221
:100A100004DD40F2E251702002F018FED3498A4210
:100A200004DA40F2E351702002F010FED04988420F
:100A3000A8BFD04903DA0028B8BFCD4900DA401872
:100A4000109A059902F074FA0398099920F07F40F2
:100A50000390081A20F07F42002F18BF322604D1DD
:100A60009DF83400002818BF0226B4F1807F08D01A
:100A70000998001B0002C11700EB11600012012849
:100A800002DA042018990BE047B1B44890F82D0021
:100A900020B19DF83400061C18BF02262146012013
:100AA000B9F1000F02D0149B1E2B02DA9DF83430EE
:100AB00013B14FF0010B401E8319A9489DF8356012
:100AC000007815900998801A20F07F4CACEB01005B
:100AD00000024FEAE07E00EB1E600012984218DB35
:100AE000002A18BFCDF824C0099E1097002701F0F6
:100AF000C1FE301A0002C11700EB116000123E283F
:100B00003EDA012D1FD0701E109920F07F4011B3E6
:100B10002CE07AB1002E04BF159803280AD027B91B
:100B20009DF83400002818BF9B1E00228DF8342049
:100B30009046C7E707BB9DF83400E8B100208DF868
:100B400034009B1EBEE7B4F1807F20D140F6E20165
:100B5000702002F07BFDB4F1807F07D0211A0902DA
:100B6000CA1701EB12610912042903DD044601F0E2
:100B700087FE0CE000290ADD1BB00020BDE8F08FE5
:100B8000701E20F07F44204601F07AFE5746B4F1F3
:100B9000807F28D00998DDF828C0001B8BF0010366
:100BA000754A20F07F40ACEB040C2CF07F4C834264
:100BB00098BFB0F5800FDFD26245DDD320460EF03E
:100BC000F9F8684A0799531C0E1AB6EB930F24BF25
:100BD000A0EB010CBCEB930F10D3B24208D2101A59
:100BE0000844461C0AE040F60121702002F02EFD68
:100BF00062452DD2511A0844401C4642574890F88D
:100C0000310050B3284645464FF0000BD846012826
:100C100005D0022002F07CF8012002F079F8A94505
:100C20002CD2A6EB05014FF001034FF003024FF069
:100C3000020001F0A5FF002808BF4FF00108B9F13C
:100C4000000F35D00123A6EB09010322184623E04B
:100C500040F6E121702002F0F9FCC14534BF404666
:100C60004846BBF1000F14BF00211E210844B042CA
:100C7000C8DB40F61421702002F0E8FC10D90123F3
:100C8000A6EB09010322184601F07AFF28B37DB1D3
:100C9000711B01230322022001F072FFE8B107E07B
:100CA00055EA090004D040F64C11702002F0CEFC49
:100CB000012303223146002001F062FF68B10125C3
:100CC000B8F1000F03D0129809908DF834B0DFF816
:100CD000AC80BAF1000F0ED109E0022002F018F842
:100CE000012002F015F81BB00020BDE8F08F1B4872
:100CF00090F82D0000B14FB3DFF860A09AF82C00F7
:100D000018B102F0F1FA8AF82CB007B3A4F132005E
:100D100020F07F414FF40020C8F800000023032298
:100D2000052001F02DFF78B34FF08044052002F03C
:100D3000A9F81349C1F81005C1F814451149E0128A
:100D40000860064C94F82D00F0B35DE01DE021E052
:100D50000805004010000020340A0020340D002057
:100D600012000020FF7F841E0020A10700E05EF833
:100D70000080841E00807BE1FFFF3F0008F50140FA
:100D800098F0014004F5014035E0DFF8B8A09AF88A
:100D90002C0058B32B4C94F82D0050B14FF4002088
:100DA000C8F80000052001F0B3FF02F005FB84F84D
:100DB0002DB006AC244894E80E10C0F80013C0F81B
:100DC0000423C0F8083300E01AE0C0F80CC30AACF2
:100DD00094E80E10C0F81013C0F81423C0F81833AC
:100DE000C0F81CC31BB00120BDE8F08F02F098FAD8
:100DF0008AF82C5089E74FF45271702002F026FCDB
:100E000002F0CCFA84F82D50A6EB0900A0F11901EC
:100E1000002904DC40F63E21702002F017FC03227A
:100E20000123104601F0ACFE38B108488068C0F8D4
:100E300000B00748C0F800B0BBE740F64921702079
:100E400002F004FC340D0020340A002010000020C1
:100E50000805004010B5154C94F82F00202818BF45
:100E600010BD94F82E2004EB820090F82010202969
:100E700016D0DFF83CC00CEB821303EB41035B7828
:100E800080F82030012380F8233084F82B3084F858
:100E90002F10022000F0B2F8002084F82A0010BDC4
:100EA00040F29531702002F0D1FB0000340D00209B
:100EB000B40C00202DE9F05FDFF8B48098F82E50D4
:100EC00008EB850090F82140202C08BFBDE8F09F7A
:100ED000DFF8A0A0DFF8A090A9F5207B09EB85172B
:100EE000072617F8140001280ED0042808BF022690
:100EF0000AD005280CBF0326062805D040F6AF010E
:100F00004FF0700002F0A2FBBAF1000F18BFAFF370
:100F10000080EFF3108072B607EB44014A7808EBCB
:100F2000850181F8212091F82220A24204BF2022CD
:100F300081F82220A8B12A462146012000F05EF85F
:100F400004EB840031465BF820202046904798F857
:100F50002E5008EB850090F82140202CBED1BDE832
:100F6000F09F0648002818BFAFF3008062B6E2E7A2
:100F7000340D002000000000B40C00200000000030
:100F800010B5044600680DF015FF0146608994F91C
:100F90000820DFF854C01044C21C88180023BCEBA2
:100FA000010173EB030104D240F2E151702002F021
:100FB0004DFB0E498A4204DD40F2E251702002F0FE
:100FC00045FB0B498A4204DA40F2E351702002F0FB
:100FD0003DFB08498842A8BF074903DA0028B4BF8F
:100FE000044910BD401810BDFF7F841E0020A107DA
:100FF00000E05EF80080841E00807BE1DFF854C0D2
:1010000010B500230CEB821C07281ED2DFE800F08D
:10101000050505050404040001230CF81100002B4C
:1010200008BF10BD0C4800EB820292F82200202875
:101030000EBF82F821100CEB4000417020200CEB19
:101040004103587082F8221010BD40F25E217020DA
:1010500002F0FCFAB40C0020340D00202DE9F34F0F
:1010600083B05C48049900EB8100019090F8204027
:1010700003982546012818BF022805D040F685218F
:101080004FF0700002F0E2FA0027202D4BD05148BB
:101090000091002690F83100002808BF022601F0D8
:1010A000E9FBDFF838A104EB84010AEB8101DFF8EA
:1010B00028914A688968121A091A22F07F4221F0A1
:1010C0007F41964298BFB2F5800F01D2894528D260
:1010D000434A009902EB811B22460BEB42014C78FC
:1010E000202C16D004EB84010AEB810CDCF8048080
:1010F000DCF808C0A8EB000828F07F48ACEB000142
:1011000021F07F41464598BFB8F5800FE4D289456C
:10111000E2D3202A05D020210420009BFFF7E8F924
:101120000446AC4215D12F48002818BFAFF3008009
:1011300001F0A0FB274C94F8301020290DD0E16875
:10114000821C511A0902CA1701EB12610912002907
:1011500003DD05B00020BDE8F08F202D0DD02A461C
:101160000399FFF7E1FB58B3019880F8237084F8E6
:10117000305005B00120BDE8F08F94F82C0018B174
:1011800002F0B2F884F82C7094F82D0050B1164992
:101190004FF400200860052001F0BAFD02F00CF9C0
:1011A00084F82D70042001F0B3FD01F00DFE202025
:1011B00084F830000D48806807600D480760D8E764
:1011C0002A4620210420049BFFF792F905B0002055
:1011D000BDE8F08F340D0020FFFF3F00340A0020EF
:1011E000B40C00200000000008F5014010000020B1
:1011F000080500402DE9F04F734E074687B096F87A
:101200002F008A4620285AD096F82F0006F10C04A9
:1012100000EB8000A6F5407909EB800820208DF8CE
:10122000000096F82E0003AA06EB800001A990F8B2
:101230002050306902903068384401F079FE9DF901
:101240000C00002802DD0198401C0190D8F808002D
:1012500001994318642F37D35C490022C91B72EBF4
:10126000020031D3D8F80400181A20F07F40B0F5FE
:10127000800F29D223F07F406060534884F80CA08F
:1012800090F82E10EA46202D1CBF514800EB811B20
:101290004AD005EB850009EB80086068D8F8042087
:1012A0002146101A0002C21700EB126008F1040672
:1012B000001226D4708988B3488948B134E040F6DA
:1012C0005231702002F0C2F907B00120BDE8F08F62
:1012D0002046FFF755FE05AA04A901F029FE9DF955
:1012E00014000028CCBF0120002000F13301049835
:1012F0003268101A0002C21700EB12600012884216
:1013000012DA8AF8005098F81010207B814206D833
:101310000298606007B00320BDE8F08F04E00BEB9B
:1013200045004578202DB4D1274DA868B0F1FF3F86
:1013300016D001F09FFAA968081A0002C11700EB45
:1013400011600012022805DC0298606007B00220DC
:10135000BDE8F08F052001F0DBFC4FF0FF30A86006
:1013600095F82E309DF800202021202A13BF05205B
:1013700005EB830090F82000FFF7BAF895F82E20CF
:10138000134901EB821195F82F2001EB42014870BF
:10139000286838442860012085F82B00687E0128E1
:1013A00005D12869401E20F07F4001F003FB9DF825
:1013B0000000202803D00748407802F017FA07B051
:1013C0000020BDE8F08F0000340D0020FF1FA107B2
:1013D000B40C0020100000200246DFF854C010B505
:1013E0000023BCEB0202084473EB030204D240F278
:1013F000E151702002F02AF90E4A914204DD40F2D8
:10140000E251702002F022F90B4A914204DA40F2D4
:10141000E351702002F01AF908498842A8BF084930
:1014200003DA0028B4BF054910BD401810BD000004
:10143000FF7F841E0020A10700E05EF80080841E6C
:1014400000807BE1104A0B1A02F1010CB3EB9C0FF8
:101450003CBF1846704710B5441AB4EB9C0F3CBF14
:10146000184610BD9A4203D2101A0844401C10BD01
:10147000A24204D2511A0844401C404210BD40F61A
:10148000E121702002F0E2F8FF7F841E0B4910B5C5
:1014900091F82F0020280CD091F82F0091F82F10F0
:1014A000074A01EB810152F82120BDE810400421D8
:1014B000104740F69301702002F0C8F8340D002068
:1014C000340A002070B5604E6049012506F540746D
:1014D00008287CD2DFE800F00457889AB23E9FA427
:1014E00094F82C0018B901F01BFF84F82C50E08A06
:1014F00010B102F047F888B1FFF7ACFC84F829502E
:10150000A168B1F1FF3F05D001230322052001F0BE
:1015100037FB40B1607E012810D109E040F64B0155
:10152000702002F093F84FF40561702002F08EF8FD
:101530002069401E20F07F4001F03CFA94F82F0013
:1015400094F82F1001EB810156F82120BDE870407E
:1015500001211047FFF77EFC4FF0FF30A06094F8A8
:10156000290058B194F82F0094F82F1001EB810155
:1015700056F82120BDE87040062110474FF406615F
:10158000702002F063F8FFF765FC84F8285001F042
:10159000F9FF18B194F82C0028B108E040F66F016B
:1015A000702002F053F801F0BBFE84F82C5094F840
:1015B0002D0058B126494FF400200860052001F0A5
:1015C000A7FB01F0F9FE002084F82D0000E035E0D3
:1015D00094F82F0094F82F1001EB810156F8212088
:1015E000BDE870400021104701F038FCE08A10B1DE
:1015F00001F0C8FF28B117480078032808BF6577B5
:1016000070BD40F67901702002F020F812480560A4
:101610008868056070BD0878BDE8704002F0E6B8E3
:10162000FFF718FC94F82F0094F82F1001EB8101BC
:1016300056F82120BDE870400521104740F68B0187
:10164000702002F003F80000340A0020100000208F
:1016500008F501401200002008050040034810B5BD
:1016600040780DF0A7FB80B210BD000012000020F2
:101670002DE9F34FFF4893B088460068FE4DC00542
:10168000C00D0ED0103840B20028B8BF00F00F00D7
:1016900000F1E020ACBF90F8000490F8140D400970
:1016A0000DD098F800004FF0000B002818BF01285B
:1016B00018D040F239714FF0700001F0C7FF95F873
:1016C0002F004FF0010B202807D098F8000048B1F8
:1016D00040F23571702001F0B9FF40F23271702094
:1016E00001F0B4FFE54C24B1002140F23C70AFF3AF
:1016F00000801398E24900EB800001EB80004FF07E
:101700000109019024B1002140F24470AFF3008040
:10171000B9F1000F0AD000BF95F82E604FF0000A13
:1017200085F82BA0BBF1000F07D02EE0D54800288C
:1017300018BFAFF3008062B6EEE73746012020EA1B
:101740000706D148402200EB871100EB861002F01B
:10175000D3F824B1002140F2A550AFF3008005EB8F
:10176000870105EB8600096A016224B1002140F27D
:10177000A950AFF3008024B1002140F24E70AFF3C6
:10178000008095F82B000028BCD124B100214FF433
:10179000EB60AFF3008001F06DF8074698F80000A9
:1017A0000DF10809002898F80B008DF8150098F83D
:1017B0000A108DF81410B8F80810ADF81210009047
:1017C000D8F8043013D000224846FEF72FFE0797C2
:1017D000BDF812000FAA0EA901F0AAFB95F82F0080
:1017E00020280AD02869401D20F07F401EE048468E
:1017F000D8F80C20FEF71AFE4BE00798093000904D
:10180000BDF8120028B101F0BDFE10B900983230C9
:1018100000909E4841780E98814298BF009803D965
:10182000091A00980844009020F07F40DDE9022169
:10183000891A0290084420F07F40039031464846C0
:10184000FEF792FE98F80B000090B946B8F8081021
:101850000EA8D8F80430D8F80C20FEF7E7FD02985F
:10186000039AA0EB090020F07F40A2EB09020F9938
:1018700022F07F42B0F5800F01D2914209D2DDE91A
:101880000221891A781827F07F4220F07F40CDE9A5
:10189000022024B1002140F25F70AFF300807A4A49
:1018A0003946DDF84C9002EB861702A817F819208C
:1018B000012A18BF022A3DD1029ADDF80CC0A2EB22
:1018C0000102734B22F07F42ACEB010121F07F411A
:1018D000022A69D3B2F5800F66D28B4264D34FF0EF
:1018E000010A0EAB0DAA3146FEF788FFF0B39DF852
:1018F00034109DF8382033468A4261D00520FEF727
:10190000F7FD00BF07EB490148709DF8340020281F
:1019100003BF05EB860080F8209080F823A007EB3A
:10192000400018BF80F80190324649465FF003003E
:10193000FFF764FB05EB860090F8237024B10021CB
:1019400040F26670AFF300805248002818BFAFF332
:101950000080EFF3108972B624B1002140F26C7060
:10196000AFF3008095F82B00002800E024E07FF41E
:10197000C9AE24B1002140F27470AFF300800DF1C4
:10198000040EBAF1000F9EE80F1000F1040080E889
:101990000E1041D024B1002140F28170AFF30080DD
:1019A000BBF1000F2BD115E0324649460420FFF76A
:1019B00025FB4FF0010ABDE7324649460420B7E750
:1019C000202919BF07EB4100407805EB860090F80D
:1019D000200097E79FB195F82F0020280FD124B160
:1019E000002140F28670AFF3008031460220FFF7FD
:1019F00035FB20B998F80000D0B301285ED024B19F
:101A0000002140F2A370AFF3008085F82E60012022
:101A100085F82B004FF0010A24B1002140F2AC7090
:101A2000AFF30080B9F1000F51D024B100214FF481
:101A3000F660AFF30080BAF1000F11D095F82E00D8
:101A400005EB800090F82100202809D024B1002166
:101A500040F2B770AFF300800F48407801F0C6FE47
:101A600024B1002140F2BC70AFF30080504615E075
:101A700017E0000004ED00E0340D0020000000003D
:101A8000340A002000000000B40C002012000020E6
:101A9000FFFF3F00000000001000002015B0BDE86F
:101AA000F08F24B1002140F28E70AFF3008095F8E2
:101AB0002E2004201399FFF7A1FAABE7002C3FF486
:101AC00021AE002140F29970AFF300801AE603487E
:101AD000002818BFAFF3008062B6A6E70000000040
:101AE0002DE9F04F0546E1488DB00068C005C00DF6
:101AF00011D0103840B20028B8BF00F00F0000F13C
:101B0000E020ACBF90F8000490F8140D400908BF25
:101B10004FF0010B01D04FF0000B287800284FF058
:101B200000001CBF0DB0BDE8F08FDFF84483D14E3C
:101B30004FF00009CDF81800B8F1000F04D00021D3
:101B40004FF4C660AFF3008096F82E7086F82B90A5
:101B50004FF0000AB8F1000F04D0002140F23560C8
:101B6000AFF30080BBF1000F21D13C46012020EAF9
:101B70000407C148402200EB841100EB871001F0FC
:101B8000BBFEB8F1000F04D0002140F2A550AFF326
:101B9000008006EB840106EB8700096A0162B8F158
:101BA000000F04D0002140F2A950AFF30080B8F13B
:101BB000000F04D0002140F23D60AFF3008000F040
:101BC00059FE044602A8019028780028E87A8DF88A
:101BD0001500A97A8DF814102989ADF8121000901B
:101BE0006B6813D000220198FEF720FC0094BDF82A
:101BF000120008AA07A901F09BF996F82F002028E7
:101C000009D03069401D20F07F401DE0EA6801984E
:101C1000FEF70CFC46E0009809300090BDF8120079
:101C200028B101F0AFFC10B9009832300090934811
:101C300007994078884298BF009803D9411A0098C4
:101C40000844009020F07F40DDE90221891A0290CB
:101C5000084420F07F40039039460198FEF784FC49
:101C60000194E87A0090298908A86B68EA68FEF771
:101C7000DDFBDDE90130039AC01AD21A20F07F4063
:101C8000099922F07F42B0F5800F01D2914209D22A
:101C9000DDE90221891A601824F07F4220F07F409C
:101CA000CDE90220B8F1000F04D0002140F24360DA
:101CB000AFF3008096F82F00202814D030690299E5
:101CC000091A0902CA1701EB126109120BD5DDE9E5
:101CD0000221891A20F07F42084420F07F40CDE99C
:101CE00002204FF0010AB8F1000F09D0002140F2A4
:101CF0004D60AFF30080002140F25360AFF30080ED
:101D00000299039A091B121B5D4821F07F4122F0C2
:101D10007F42B1F5800F05D2904203D3BBF1000F93
:101D20000BD104E04F46BBF1000F39D094E03946A7
:101D300002A8FEF719FC4AEA000ABAF1000F23D004
:101D400002980DF037F8BDF812109DF91020DFF859
:101D500034C11144CA1C81180024BCEB000074EB90
:101D6000090043D3484882425BDC4042824260DB48
:101D70000CF101008142A8BF444803DA0029B8BF32
:101D8000434800DA0918E9604FF001000690B8F105
:101D9000000F61D0002140F26660AFF300805BE08D
:101DA000BDF8120001AA694601F0C2F896F82F00AA
:101DB000202820D03069401D20F07F40DDE902213D
:101DC000891A014421F07F41CDE902010CF0F2FFB4
:101DD000BDF812109DF910202A4B1144C91C42185D
:101DE0004FF0000C181A7CEB070017D240F2E151BB
:101DF000702001F02BFCBDF81200093420B101F075
:101E0000C1FB002808BF32341C4841780098814249
:101E100084BF081A044424F07F40CFE71A48814267
:101E200004DD40F2E251702001F010FC19488142BB
:101E300004DA40F2E351702001F008FC14488242B9
:101E4000A8BF124803DA002AB8BF114800DA1218F6
:101E50004FF00100EA60069096F82B0000287FF40E
:101E60006BAE06980DB0BDE8F08F000004ED00E009
:101E700000000000340D0020B40C002012000020EF
:101E8000FFFF3F00FF7F841E0020A10700807BE151
:101E90000080841E00E05EF82DE9F14F804D8CB08B
:101EA00095F82E000020099001207E4C4FF000088C
:101EB000A5F180078346089024B1002140F2CB7041
:101EC000AFF30080089890B385F82B8024B10021EF
:101ED0004FF4FA60AFF3008095F82E9040222BEA81
:101EE000090607EB861007EB8911824601F004FD15
:101EF00024B1002140F2A550AFF3008005EB86002D
:101F000005EB89010090096A016224B1002140F2C9
:101F1000A950AFF3008095F82B0080B1002C1CBFB6
:101F2000002140F2D670C7D0AFF30080C4E7FFE7CE
:101F30005D48002818BFAFF3008062B6C4E724B143
:101F4000002140F2DA70AFF300800C981AF810000C
:101F5000032878D1DDF80090CDF818900C9999F805
:101F60002000884214BF4FF0000A4FF0010A09F127
:101F7000200C8646202207EB861303E0024603EB83
:101F800042004078884202D020280AD0F6E7202874
:101F900007D0864507D103EB4E0040788CF800004F
:101FA00007E040460CE003EB400003EB42014078C1
:101FB000487024B1002140F22A50AFF30080584607
:101FC00010EA0A0F18BF89F823B0E0B324B100214A
:101FD00040F2DF70AFF30080324601200C99FFF72A
:101FE0000DF8069890F8239024B1002140F2EA7091
:101FF000AFF300802D48002818BFAFF30080EFF347
:10200000108072B6089024B1002140F2EF70AFF357
:10201000008095F82B0038B1002C1CBF002140F245
:10202000F3703FF449AF7FE7B9F1000F08D095F89E
:102030002F00202804D131460220FFF70FF8F8B115
:1020400034B1002100E009E040F60700AFF3008062
:1020500085F82E6085F82BB00120099024B100216D
:102060004FF40160AFF30080089888B124B10021DB
:1020700040F61400AFF3008009980DB0BDE8F08F72
:10208000002CF1D0002140F60200AFF30080E6E71B
:102090000548002818BFAFF3008062B6E6E70000ED
:1020A000340D0020000000000000000000000000CF
:1020B00010B5202811D20E4991F82E30A1F18002DE
:1020C00002EB831C1CF810303BB191F82E3002EB70
:1020D000831212F81020012A01D0002010BD91F8BF
:1020E0002E2001460020FEF789FF012010BD0000D0
:1020F000340D00202DE9F05F7E4E804696F82E00CC
:10210000A6F1800707EB801010F81800002865D0B2
:1021100096F82E90784D25B100214FF43A60AFF338
:10212000008007EB891414F81800012818D0C0B2F9
:1021300004281CBF0528062855D02DB14FF00001FA
:1021400040F6AC30AFF3008001F0A6FB25B10021D2
:102150004FF43B60AFF3008014F818000128E6D17B
:10216000012425B1002140F6B730AFF30080A4B3BD
:10217000002086F82B0025B1002140F6BC30AFF3DB
:10218000008096F82EB0012020EA0B0907EB8B1196
:1021900007EB8910402201F0AFFB25B1002140F28E
:1021A000A550AFF3008006EB8B0006EB890A006AAE
:1021B000CAF8200025B1002140F2A950AFF30080F9
:1021C00096F82B00E0B1002D1CBF002140F6C23074
:1021D000C7D000BFAFF30080C3E70AE040F69731F5
:1021E000702001F033FA4A4641460120FEF706FF0F
:1021F000ACE74248002818BFAFF3008062B6B7E7EB
:1022000025B1002140F6C630AFF300809AF82130A6
:102210000AF1210140461C464FF0200B07EB8912C2
:102220000AF1220A04E0A34602EB4B0C9CF80140A1
:10223000844202D0202C2BD0F5E7202C28D0A342BA
:1022400004D102EB43004078087005E002EB440043
:1022500002EB4B0140784870BAF1000F11D025B164
:10226000002140F22250AFF300809AF80000A04213
:1022700007D125B1002140F22550AFF300808AF844
:1022800000B05DB1002140F22A50AFF3008000E0C1
:1022900025B1002140F6CA30AFF30080184800286D
:1022A00018BFAFF30080EFF3108472B696F82B00DE
:1022B00038B1002D1CBF00214FF43D603FF451AFF9
:1022C00088E786F82E90012086F82B0054B1002D67
:1022D00008BFBDE8F09F002140F6DD30AFF300807D
:1022E000BDE8F09F0548002818BFAFF3008062B634
:1022F000EDE70000340D00200000000000000000A9
:102300000000000070B5054601F02AF90D4890F86C
:102310002E200024803800EB821000BF10F814102B
:1023200029B1611CCCB2202CF8D3202070BD064905
:1023300004EB840041F8205021460120FEF75EFEA8
:10234000204670BD340D0020340A00202DE9F041F4
:1023500000F090FA054600F037FD484CA068B0F157
:10236000FF3F1CBF4FF0FF30A06094F83100A8B9C8
:10237000D4E90301081A0002C11700EB1160001232
:102380004FF40C710CF043FD21690844281A000237
:10239000C11700EB11600012C00F0BD0607EC8B1F6
:1023A00000F074FB94F82A00D0B14FF489617020DA
:1023B00001F04CF994F82F0094F82F10304A01EBFB
:1023C000810152F821200821904740F237417020C6
:1023D00001F03CF9E81C20F07F4000F051FAE1E701
:1023E000012684F82A6094F82F00202825D094F83C
:1023F0002F70202084F82F0084F83000002584F806
:10240000285084F829501F4825600078022816BFFC
:10241000032801200020207794F82E804FF001003F
:102420004146FEF71BFE0028F8D0174800EB881045
:1024300010F81700022805D009E040F24B41702047
:1024400001F004F9424639460620FEF7D7FD84F82C
:102450002B6004EB880090F82100202803D00B4863
:10246000407801F0C3F9207F002808BFBDE8F08163
:1024700000F0F4FC25776577BDE8F081340D00208D
:10248000340A002012000020B40C002010000020AC
:1024900030B5304C83B094F82F10202908D0A168B3
:1024A000B1F1FF3F09D040F6BE21702001F0CEF817
:1024B00040F6BD21702001F0C9F86168DFF898C0CE
:1024C0000B180022BCEB010172EB020104D240F2B6
:1024D000E151702001F0BAF82049884204DD40F251
:1024E000E251702001F0B2F81D49884204DA40F24E
:1024F000E351702001F0AAF81A488342A8BF1A4895
:1025000003DA002BB8BF174800DA1B18184601AAD7
:10251000694600F00DFD9DF904000F28CCBF012095
:1025200000200099084420F07F41A16094F8290020
:10253000002804BF03B030BD01230322052000F0B2
:102540001FFB00281CBF03B030BD40F6C621702021
:1025500001F07CF8340D0020FF7F841E0020A107CD
:1025600000E05EF80080841E00807BE11E4A10B50A
:10257000202182F8201082F8211082F822100020F9
:1025800082F8230082F82E0082F82F10431E9360F9
:10259000106082F8280082F829001077507782F8BE
:1025A000301082F82C00114982F82D0082F8310099
:1025B000087048704880A2F182011023887001F8E9
:1025C000040F5B1EFAD10120094C82F82A00FF207B
:1025D0002070084801F0ECF8607001F047F9A06045
:1025E000BDE8104000F068BC340D0020120000204F
:1025F00010000020B50E000070B50546012000FA5D
:1026000005F40E46002A08BF08480CD0002000F050
:1026100039FCE90001F1804101F5F831C1F81005FC
:10262000C1F814650248046070BD000008F501405F
:1026300004F5014070B50446154608460CF0BAFB97
:102640000F4A011B02F1010CB1EB9C0F24BF231AAE
:10265000B3EB9C0F0BD38A4203D2111B0844411CDD
:1026600005E09A4207D2101A2044401C414201F171
:102670000F00281A70BD40F6E121702000F0E6FF3F
:10268000FF7F841E2DE9F041244CD4F804034FF061
:10269000000510F4803F4FF400664FF0E0271CBFA8
:1026A000D4F8400100280BD04FF48030C4F8080360
:1026B000C4F84051C7F880624FF00400FEF702FFF3
:1026C000D4F8040310F4003F1CBFD4F844010028E0
:1026D0000BD04FF40030C4F80803C4F84451C7F8D5
:1026E00080624FF00500FEF7EDFED4F8040310F40D
:1026F000802F1ABFD4F848010028BDE8F0814FF4BC
:102700008020C4F80803C4F84851C7F88062BDE8C7
:10271000F0414FF00600FEF7D5BE000000B00040CB
:102720002DE9F0413A4D287804286CD0E81C0122AC
:10273000017859B1012908BF6A7002D0697800296F
:102740005CD002210170407800F0E2FA314CD4F8FC
:1027500004034FF0000810F4002F4FF480764FF080
:10276000E0271CBFD4F84C01002808D04FF003002C
:1027700000F0CEFAC7F880620320FEF7A3FED4F87B
:10278000040310F4802F1CBFD4F84801002808D09F
:102790004FF0020000F0BCFAC7F880620220FEF79A
:1027A00091FED4F8040310F4003F1CBFD4F8440198
:1027B000002808D04FF0010000F0AAFAC7F88062A4
:1027C0000120FEF77FFED4F8040310F4803F1ABF07
:1027D000D4F840010028BDE8F0814FF0000000F07F
:1027E00097FAC7F8806204202870C5F80880C4F8FA
:1027F0000082BDE8F0410020FEF764BE40F2723175
:102800006C2000F023FFBDE8F0410720FEF75ABE20
:102810001C00002000800040012213024FF0E02144
:102820000020C1F8803101F5C071BFF34F8FBFF3B5
:102830006F8FC1F800310C494A60431EC1F808335C
:102840000A4B1860C1F840011B1D1860C1F8440113
:102850001B1D1860C1F848011B1D1860C1F84C0110
:102860000A6103494870704700800040408500407D
:102870001C000020014800687047000004B50040BB
:102880002DE9F05F414E0446F71E96F800C0F86847
:10289000BCF1010F04BFA042BDE8F09F4FF04041E2
:1028A0003B4A11603B496FF48023C1F808333A4A30
:1028B0004FF00005BCF1000F57D06FF4A023C1F812
:1028C00048331560C1F84451D1F848214FF0E02950
:1028D0004FF00108002A04BF4FF40062C9F88022BB
:1028E0004FF48033C1F80833C1F84833C1F8405180
:1028F0002A4AD2F800A0A4EB0A0A2AF07F4BBBF1C7
:10290000020F3CD34FF0020ABBF5800F37D2C1F85B
:102910004045C1F84433BCF1000F05D01168411A9D
:1029200021F07F410229F9D3C7F808803D70FFF7F5
:1029300073FF1B480560001DC0F800A01949042062
:1029400008601949C1F80C80BA68C1F800228101F9
:10295000C9F88012C9F80011144A41071160FC60DF
:10296000707086F80080BDE8F09FC1F84833104BC6
:102970001D60C1F840511560C1F84451A4E7C1F889
:10298000405540F2A5116C2000F060FE1F000020B1
:1029900008F5014000B0004044B5004004B50040D7
:1029A00004850040108500400080004004F501408F
:1029B00040B500402DE9F0412B4CE168814214BF45
:1029C00001220022DFF8A4C09CF80070022F02D080
:1029D000002A38D003E0002A08BFBDE8F081627801
:1029E00082B3234B4FF080421A60224B9513C3F8F9
:1029F0000853C3F848530026C3F840611E4AD2F872
:102A00000080A0EB080828F07F48B8F1020F24D31B
:102A1000B8F5800F21D2C3F84005C3F844532FB155
:102A20001368CB1A23F07F43022BF9D3134B0221F7
:102A30004A071A60E06004208CF801008CF800104E
:102A4000BDE8F08104E040F2B3116C2000F0FEFD1F
:102A500040F2B7116C2000F0F9FDC3F8406540F278
:102A6000C3116C2000F0F2FD1C0000201F000020AC
:102A700008F5014000B0004004B5004004F50140F5
:102A80000148C068704700001C0000202DE9F0419B
:102A900033486FF48024C0F80843DFF8C8C0324AD6
:102AA00000219CF8003063B16FF4A024C0F84843C3
:102AB0001160C0F8441100BFD0F84801012280B96C
:102AC00009E0C0F84843294C2160C0F8401111606A
:102AD000C0F84411F0E74FF0E0244FF40060C4F870
:102AE0008002022B04D040F2CF116C2000F0AEFD2A
:102AF0001F4E30681F4CC01C20F07F40E3681E4D05
:102B000098420BD03768DF1B27F07F47042F05D38F
:102B1000B7F5800F02D2FFF7B3FE1BE03068181A3A
:102B200020F07F40022813D3B0F5800F10D2134B52
:102B30004FF080401860A26021706A60EA60400037
:102B4000191F086004208CF801008CF8002001E0B7
:102B5000A2602170A068C5F80002BDE8F081000005
:102B600000B000401F00002044B5004040B50040C8
:102B700004B500401C0000200080004008F5014022
:102B80002DE9F047DFF874C101274FF000089CF8E9
:102B900000509CF801C007287ED2DFE800F0040452
:102BA00004046A6A6A00564CE668B6F1807F04BF86
:102BB0006478002C02D0022D05D03CE040F20221C6
:102BC0006C2000F043FD4FEA8C0404F18046ACF128
:102BD00004042406A40D04F1804906F5004609F515
:102BE00030490024012D02D0022D11D020E0BCF18B
:102BF000040F05D2D6F840A1BAF1000F18D104E0B5
:102C0000D9F840A1BAF1000F12D14FF000440FE003
:102C1000BCF1040F05D2D6F840A1BAF1000F07D1DC
:102C200004E0D9F840A1BAF1000F01D144F080448A
:102C300014F0804FD5D1334C00F1100C07FA0CFC86
:102C4000C4F808C38000204452B10764D0F840653E
:102C50008D1B25F07F45AA4298BFB5F5800F43D262
:102C6000C0F84015012B08BFC4F804C30120BDE81B
:102C7000F08735B1844504D140F229216C2000F061
:102C8000E5FC001FC0B2012B0CBF01240024032867
:102C900006D340F2031100E02BE06C2000F0D6FCDC
:102CA000DFF864C000F1100307FA03F3CCF808332F
:102CB000CCF8483380006044C0F840814AB1134DDD
:102CC0002E688D1B25F07F45AA4298BFB5F5800F71
:102CD0000AD2C0F84015002C18BFCCF80433CCF849
:102CE00044330120BDE8F087C0F840850020BDE8EE
:102CF000F08740F22E216C2000F0A8FC1F0000207D
:102D00001C0000200080004000B0004004B50040DE
:102D1000F8B501270024072843D2DFE800F00404B7
:102D2000040416161600214A00F1100107FA01F1F9
:102D3000C2F8081381001144C1F84045C1F8404170
:102D40001B4951F820000090F8BD1A4D011FCEB26A
:102D5000297879B16A7882420CD1174A4FF0404005
:102D60001060012908BFFFF757FD2C7013494FF081
:102D70008070C86006F1100007FA00F11048C0F832
:102D80000813C0F84813B00000F1804000F530404F
:102D9000C0F84045C0F840410A4850F8260000906D
:102DA000F8BD40F29B216C2000F050FC00800040F8
:102DB000408100401F00002008F501401C00002059
:102DC00000B0004040B100401E496FF48023C1F8BC
:102DD00008331D481D4A90F800C00020BCF1000FC8
:102DE0000AD06FF4A023C1F848331060C1F8440141
:102DF000D1F8481181B909E0C1F84833144B186083
:102E0000C1F840011060C1F84401F1E74FF0E02241
:102E10004FF40061C2F880120E494FF0FF32C1F842
:102E200008230D4A1060C1F84001121D1060C1F85E
:102E30004401121D1060C1F84801121D1060C1F854
:102E40004C01704700B000401F00002044B5004016
:102E500040B500400080004040850040084890F99F
:102E600002000028B8BF704700F01F01012202FADB
:102E700001F14009800000F1E020C0F80012704725
:102E80001C00002010B507280DD2DFE800F0040474
:102E9000040406060600064902E0001F0549C0B208
:102EA00001EB800010BD40F252216C2000F0CEFBFF
:102EB0004081004040B1004070B519480024042111
:102EC0000470C01E01708905C160FFF7A5FC0125D3
:102ED0004FF0E02CEB02CCF88031BFF34F8FBFF303
:102EE0006F8FCCF880320F4A556095600E480168AC
:102EF0000029FCD1481EC2F80803C2F848030B4859
:102F00000460C2F84041001D0460C2F84441001D45
:102F10000460C2F84841CCF80031156070BD000073
:102F20001F00002000B0004004B5004040B5004044
:102F3000430B48F2376C03FB0CF31B0C4FEA432C9A
:102F4000C1F800C0DFF838C003FB0C030D484CF299
:102F5000F72C5843400D10FB0CFC0CEB432303F5FE
:102F600080735B1213700B681844086010781F2878
:102F700018BF7047002010700868401C0860704738
:102F8000F7C2FFFF6F0C01002DE9F041164C607A8B
:102F9000002827D04FF480718D0528460BF05BFF89
:102FA00080464FF4827128460BF055FF00260746F5
:102FB000B8F1000F09D00120C5F80803207920B12D
:102FC0002671E06908B18047E66137B1C5F8046150
:102FD0000220C5F8080300F089FA4046BDE8F04138
:102FE00000F05AB8BDE8F0812C00002010B50BF0BD
:102FF000DCFF30B90BF0FAFF18B90CF02DF80028FF
:1030000002D002490220086010BD0000340C0040CC
:1030100070B500F085F900F0B5FA094C4FF0804525
:1030200030B1FFF7E3FF012028610320A07204E024
:103030000220A0720120C5F804030020E07170BDD9
:103040002C00002070B5134CA079F0B1012803D0FA
:10305000E179401E814218DA00F094FA054600F04A
:1030600065FBA179012902D9E179491CE1710DB112
:10307000616900E02169411A022902DA11F1020FA7
:1030800007DC0DB1606100E02061BDE87040FFF732
:10309000BFBF70BD2C0000202DE9F04706464FF061
:1030A00080454FF4867128460BF0D5FE80464FF4DC
:1030B000887128460BF0CFFE264C824694F800908B
:1030C00004F108000BF03BFF10B14FF4D97114E08C
:1030D00001273EB1A07A022804D10320A072FFF795
:1030E00085FF2F610026B8F1000F17D0C5F80C61DD
:1030F000A07A032804D04FF4E2716D2000F0A6FA04
:103100000BF053FF28B90BF071FF10B90BF0A4FFBF
:1031100008B111480660A77200F0E6F8BAF1000F96
:1031200007D0C5F81061A07A012801D1FFF78AFF06
:103130006F61B9F1000F07D02670A07A012801D184
:10314000FFF766FF00F0D0F8BDE8F047014808300F
:103150000BF00CBF2C000020340C00402DE9F04790
:103160005C4C00260546A661427881780078E072C2
:103170006271A1710127E6714FF08049052821D2C3
:10318000DFE800F00F03051C1E00A76109E000F056
:10319000C7F8012148460BF063FE0028F9D0022051
:1031A000A0610BF089FE98B100F006FA217E01F0D3
:1031B000030188420CD1A87938B16FE04648EFE7A7
:1031C0004648EDE74FF44C714EE000F0C9F965E078
:1031D000C846C9F80C704FF4827AC9F80461A16935
:1031E000C9F818150BF0CDFE40B90BF0D4FE28B984
:1031F0000BF0E8FE10B90BF0F9FE38B14FF080513A
:103200003748D1F84412C1F3423101600BF0B9FEE6
:1032100040B90BF0C0FE28B90BF0D4FE10B90BF08A
:10322000E5FE10B12E48103007604046C8F808701F
:103230000221C8F80413A97981BBD0F8041311F056
:10324000020F0FD0DFF89C80D8F80020D24342F361
:103250000017D8F8002042F01002C8F8002081467C
:103260007F1C07E040F2F1216D2000F0EFF900BF74
:1032700000F012FB514648460BF0EDFD0028F7D058
:1032800000F06EF92FB9D8F8001021F01001C8F83D
:1032900000100221C9F80813C9F80461A07970B1BF
:1032A000287860B900F06EF9054600F03FFA6FF03B
:1032B000004215B1C4E9042001E0C4E9040201217F
:1032C00048460BF0CDFD08B100F056F9A672BDE8F6
:1032D000F08700002C000020010002000100030024
:1032E0003C05004010ED00E010B5EFF3108472B61D
:1032F0000A48417829B14178491E4170417829B185
:1033000008E04FF483716D2000F0A0F9807808B9CF
:1033100000F046F9002C00D162B610BD2C00002050
:1033200010B5EFF3108472B606484178491C41701D
:103330004078012801D10BF0AAFD002C00D162B623
:1033400010BD00002C000020054810B5C17821B147
:1033500000210171C170FFF7C7FF002010BD000000
:103360002C00002070B50C4CE17861B90125E570A6
:10337000E061FFF7D5FF00F005F930B1E06910B169
:1033800080470020E061002070BD4FF08040257133
:10339000C0F80453F7E700002C000020EFF3108082
:1033A00072B604498A78521C8A70002800D162B62D
:1033B000704700002C00002010B5EFF3108472B6A7
:1033C0000A48817829B18178491E8170417829B1F4
:1033D00008E04FF495716D2000F038F9807808B955
:1033E00000F0DEF8002C00D162B610BD2C000020E9
:1033F0002DE9F04104006FF015003CD0217804293C
:1034000039D80029617838D0002934D1A178002931
:1034100031D100200BF0EAFC00200BF0DAFC4FF079
:1034200080484FF0FF31C8F808130026C8F8006143
:10343000C8F80461C8F80C61C8F81061144F7E70B8
:10344000A088B8810BF01AFD012508B1FD707D70D0
:10345000012140460BF004FD08B100F08DF8204634
:10346000FFF77CFE7D7200200BF0B3FC4FF0E021F3
:103470003046C1F80051BDE8F0810029FBD0202979
:10348000F9D8A1782129F6D80129C2D1F3E70000A3
:103490002C00002001488089704700002C0000208B
:1034A00010B50D480BF04BFD0B49083948B1012010
:1034B00008704FF0E021C1F80002BDE81040FFF7AE
:1034C0002FBF887A012801D1FFF7A2FDBDE8104087
:1034D00001480BF04BBD0000340000200248807A08
:1034E000002800D0012070472C000020F8B51B4DAB
:1034F000E87A002831D1287E00F003000BF0CCFCE4
:1035000000282AD0FFF7EAFF002826D14FF0804498
:103510001820C4F808030126A6614FF42070ADF806
:10352000000000BFBDF80000411EADF80010F9D248
:103530000027C4F80C71C4F81071084808300BF06B
:1035400011FD2F70FFF764FD6661687900F07F0060
:10355000C4F838051820C4F80403F8BD2C00002076
:1035600010B5044C207E00F003000BF095FC002801
:10357000F8D010BD2C0000200149012008707047D0
:10358000A80300204FF08040D0F8000118B903488C
:103590000078002800D0012070470000A803002018
:1035A0004FF08040012141600021C0F80011014826
:1035B00001707047A80300200248006800F0030073
:1035C000704700001C04004010B531B1012907D03C
:1035D0004FF4427105A000F00FF8D0F8140401E098
:1035E000D0F8080400F0010010BD00006E72665FA4
:1035F000636C6F636B2E6800024A526802B1104719
:10360000FEE700004C000020064810B500210160D4
:103610000121016008460BF066FCBDE81040012066
:103620000BF054BCFC1F0040074810B5012141605D
:10363000891EC0F808130C200BF055FCBDE81040A3
:103640000C200BF043BC000000C00040FEB5104A47
:103650005568E5B1002203466E460A2403E0B0FB3C
:10366000F4F0521CD2B20028F9D1B0540AE000BFE5
:10367000B3FBF4F004FB1030B3FBF4F3521ED2B2F0
:103680003030B054002AF3D13046A847FEBDFEE7E3
:103690004C00002070B5174C06460D46607810B1FE
:1036A0004FF0FF3070BD06B9134E62602570FFF712
:1036B000ABFFFFF7B9FF3046FFF79AFE0600F1D1E6
:1036C000FEF754FFFFF712FF0BF05AFB28460BF0F2
:1036D000FDFB0120002D09DB05F01F0100FA01F1BF
:1036E0006A09920002F1E022C2F8001160703046CF
:1036F00070BD00004C00002008EF00000148407839
:10370000704700004C000020074890F90000002896
:1037100009DB00F01F02012191404009800000F107
:10372000E020C0F8001270474C0000202DE9F04165
:1037300001264FF0E02231034FF000084046C2F866
:103740008011BFF34F8FBFF36F8F164CC4F8000189
:103750000C200BF0E7FB144D2868C04340F3001722
:10376000286840F010002860C4F8046326607F1CBD
:1037700002E000BF00F090F8D4F800010028F9D072
:103780001FB9286820F010002860084805686660A6
:10379000C4F80863C4F800810C200BF0C3FB284672
:1037A000BDE8F08100C0004010ED00E008C5004019
:1037B00010B5024605200C4904E000BF01EBC00330
:1037C0001B7933B1401EC0B2F8D24B216920FFF7FC
:1037D0003DFF41F8302001EBC00100224A718A719F
:1037E00001220A7110BD0000680D002010B50528E7
:1037F00001D35A2106E00A4901EBC00001790129F1
:1038000003D05B216920FFF721FF41798279491CB0
:10381000C9B28A4200D04171BDE81040FFF774BFC1
:10382000680D002070B505250E4E0F4C16E021786E
:1038300006EBC1000279012A08D1427983799A42C4
:1038400004D04279827156F8310080472078401CBC
:10385000C0B22070052801D3002020706D1EEDB28B
:10386000E5D270BD680D0020A903002000B50BF063
:1038700088FB40B90BF08FFB28B90BF0A3FB10B904
:103880000BF0B4FB08B1024800BD024800BD0000C7
:103890000C05004000E7014010B50BF0A7FB30B36A
:1038A000EFF31080C8B1002172B6124802680368B5
:1038B000C2F3001243F0100303604FF0E023D3F88B
:1038C0000042D3F804321C4300D040BF20BF00BFE9
:1038D00000BF00BF00BF12B105E00121E4E70268AC
:1038E00022F010020260002900D062B610BD20BF95
:1038F00010BD000010ED00E010B580EA01040346A1
:10390000A40707D015E0002A15D011F8014B03F8E1
:10391000014B521E9C07F6D102E010C9121F10C3C2
:10392000042AFAD205E000BF11F8014B03F8014B5D
:10393000521E002AF8D110BD70B50E4C60780028D8
:1039400017D120780025012806D102202070A06818
:1039500010B1A0688047A5602078032809D12570A0
:10396000A068002805D0606840698047A06880474B
:10397000A56070BD5400002010B5084C20780228C6
:1039800002D02078032802D1606880688047002038
:103990006070BDE81040FFF7CFBF0000540000206A
:1039A00038B50446052804D34FF489716820FFF721
:1039B0004DFEFFF7C1FF0E4D0120687028780228E8
:1039C00015D16868C168204688470A4901EB44025E
:1039D0005278824201D2012001E011F814008DF8E2
:1039E00000008DF80140686801686846884738BD66
:1039F000540000207E17002005490A78022A04D0CE
:103A00000A78032A01D000207047496809690847ED
:103A10005400002010B558B108490A78022A02D093
:103A20000A78032A09D149684968BDE81040084767
:103A300040F227116820FFF709FE10BD5400002056
:103A400005480178022904D00178032901D000201B
:103A50007047406880690047540000201FB5184C2B
:103A60006079032803D200BF4FF0030100E0014654
:103A70008DF8011001D24FF003008DF80000E078BE
:103A8000ADF80400A078ADF80200684608F01EFF0B
:103A900008B19C2110E0A068029002A808F02EFF57
:103AA00008B1A02108E007480068039003A80EF0C1
:103AB00078F9002803D0A421032000F0A9F81FBD45
:103AC0006C000020043D000010B528B11422044908
:103AD000FFF712FF002010BD6FF0150010BD0000B1
:103AE000363D000010B56FF02C0418BBC9B14AB1C7
:103AF000114B012909D002290AD003290BD004292E
:103B000018D10CE06FF0150010BD1078187208E0A5
:103B10001078587205E01068C3F80A0001E01068D8
:103B2000186105490122083100200BF0CBFAB0F5ED
:103B3000803FE9DB204610BD6400002038B50D460B
:103B4000D0B1CDB1FFF734FE0D4C002204F10801D5
:103B5000207028460BF0B6FA0EF0F3FD0021207815
:103B600009F008FA60788DF8000068460EF007F951
:103B70000120A070002038BD6FF0150038BD000096
:103B80006400002070B504000BD0FFF7B7FD4FF0C4
:103B9000FF3520B1FFF77EFCB0F5FA7F04D9284647
:103BA00070BD6FF0150070BD0022144B114600BFB0
:103BB00033F82150854203D303EB8100827803E080
:103BC000491CC9B20C29F3D30D48427044600D481A
:103BD00000F0E2F9EFF3108472B60B486FF00C01BD
:103BE00000F0E4FC094800F0A7FD18B1B321032060
:103BF00000F00EF804B962B6002070BD063D00006A
:103C0000640000205D3A000000E000404D3D0000EF
:103C10000EB572B6154A5568D5B1002203466E46F8
:103C20000A2403E0B0FBF4F0521CD2B20028F9D110
:103C3000B05409E0B3FBF4F004FB1030B3FBF4F331
:103C4000521ED2B23030B054002AF3D13046A847C9
:103C5000BFF34F8F06480168064A01F4E061114343
:103C60000160BFF34F8F00BFFDE70000640000203C
:103C70000CED00E00400FA05054810B5807810B19D
:103C80004FF0FF3010BD09F097F9002010BD000083
:103C900064000020054810B5807810B14FF0FF3067
:103CA00010BD08F0A9FE002010BD00006400002037
:103CB000054810B5807810B14FF0FF3010BD0EF000
:103CC000E9F9002010BD000064000020054810B58F
:103CD000807810B14FF0FF3010BD0EF0E5F90020F4
:103CE00010BD000064000020054810B5807810B1B8
:103CF0004FF0FF3010BD09F071F9002010BD000039
:103D000064000020010001000B0002000A00050011
:103D100009000A000800140007001E000600320017
:103D200005004B0004006400030096000200FA0046
:103D30000100F4010000E5C79CD991001D66EAFB73
:103D40006E7B982F420DF16093C80000F8B5124CBD
:103D50000026256811E00098022802D003280CD123
:103D600006E0206810B10020266005E026210CE066
:103D7000206868B101202660A847684600F0AEFCC4
:103D80000028E8D0052805D033210420FFF740FFA4
:103D90002B21FAE7F8BD0000780000207CB5224D09
:103DA0000646287848B1AC78691CA41C22463046E7
:103DB000FFF7A2FD0020287020E01C4808F07CFEE0
:103DC00000282FD0194C2078142804D10A213E2035
:103DD00000F02EF818B120780A2805D009E0134920
:103DE00030460BF08AFC08E005213E2000F020F868
:103DF00058B10E4930460BF043FA04468CB1B17805
:103E00003078BDE87C4000F013B8A088ADF8000021
:103E100001A968460BF086FD18B195210820FFF72F
:103E2000F7FE00207CBD0000B00E0020900D0020A9
:103E300070B50C46054600F04BF8002802D03E2D28
:103E400001D0012070BD122C06D10648017802294C
:103E500002D040780028F5D02046BDE8704000F040
:103E600053B80000AA0300200149487070470000C1
:103E7000AA03002070B50A7882703AB3012A25D8C7
:103E80001323037000230AE001EB430400EB430516
:103E9000A678EE706488240A5B1C2C71DBB2934216
:103EA000F2D300230BE000BF01EB430500EB43041A
:103EB0002E796671AD882D0A5B1CA571DBB2934229
:103EC000F2D3012101EB8200C0B270BD002070BDB1
:103ED00001210C4A40280CD2202803D8401E8140E2
:103EE000106802E0213881405068014207D100206B
:103EF0007047FF2803D0403881409068F5E70120E3
:103F0000704700007C0000200121401E81400448D1
:103F1000C068014201D001207047002070470000B6
:103F20007C00002001490068C86070477C000020C8
:103F300004490268406842F48C220A60024A104335
:103F4000486070477C000020F80740020149006883
:103F5000886070477C00002005484FF0FF31016009
:103F6000C90C4160002181601F21C16070470000C1
:103F70007C00002010B5FFF7EFFF0020FFF774FF73
:103F80000DF0E9FF04460348006800B18047204671
:103F900010BD00008C00002001490860704700003F
:103FA0008C00002002210180418000210171E52167
:103FB000417149F6C741C1800149816000207047C5
:103FC000D991001D2DE9F041074611B1002060B9DB
:103FD00001E00120FBE7012907D0002000281FD0C5
:103FE00000241248012902D002E00120F6E70478FB
:103FF00000234FF6FF7600EB810C10F801E008E09B
:104000001819DCF80C5080B255F8205025B15B1C13
:104010009BB29E45F4D830463880B04202D1002091
:10402000BDE8F081BDE8F04100F0B4B8B40F002065
:1040300010B5022804D340F253111720FFF7E8FD12
:104040000149085C10BD0000B40F0020F8B505461A
:10405000C818FF2802D940F221110FE09A4202D974
:104060004FF491710AE0C4B2009555B10026E81CE6
:1040700020F00300A84206D04FF494711720FFF7F8
:10408000C7FD0126F3E7124F68463B707970314651
:1040900000F0C6F800218C460098C01C20F00300F8
:1040A00000905EB907EB8103D860002004E0DA6875
:1040B00042F820C0401CC0B2A042F8D30098491C6E
:1040C00000EB8400C9B200900229E5D3401BF8BD83
:1040D000B40F002070B504460CF044F908B110206C
:1040E00070BD257800F04EF802460C48618800EB60
:1040F00085000EE0C36853F8213043B14A1C62804A
:10410000A180C06850F82100A060002070BD491C4B
:1041100089B29142EED36180052070BDB40F0020BA
:104120002DE9F0410746A0F57F400C4643F2020618
:10413000FF3820D0022C02D30720BDE8F08138469A
:1041400000F05EF8050016D00C48294650F82420EF
:10415000384690470A48002100EB8406F06840F892
:104160002710204600F08EF80246294670680CF0B1
:1041700031F80020E1E73046DFE70000A44200000C
:10418000B40F00200249087849780844C0B270474B
:10419000B40F00202DE9F04190460E4607460CF082
:1041A00053F840B1144800EB8604E06850F827004B
:1041B00018B1F42113E0F32111E06068002819D050
:1041C000304600F05FF8014660680BF0B5FF05006F
:1041D0000FD0E068022E40F8275003D3FF211720AC
:1041E000FFF716FD05484246294650F82630384666
:1041F00098472846BDE8F081B40F00209C4200009B
:1042000070B50C4605460CF01FF8002805D0034891
:1042100000EB8400C06850F8250070BDB40F00208A
:104220002DE9F843164F8846054600242868C01C2F
:1042300020F003002860204600F024F8395D414357
:10424000B8F1000F01D0002000E02868009018B1FC
:1042500000261EB1002002E00126FAE768460BF0B6
:1042600098FF1EB907EB8401009A4A602968641C14
:104270000844E4B22860022CD8D3BDE8F8830000DB
:10428000B40F0020034931F810004FF6FC71C01C38
:104290000840704798420000E001280279170100A9
:1042A00049150100A51701005F1501002DE9FF4F19
:1042B000264C804681B020689A46934658B1027ACF
:1042C000424503D9416851F8280040B143F2020049
:1042D00005B0BDE8F08FA5211820FFF799FC19461D
:1042E00002980BF0D2FF87B258460E990BF0C4FF2C
:1042F00086B2B819001D85B22068A146294600681B
:104300000BF01AFF04001FD0658026800E98251D33
:10431000009031465A46012328460BF048FE20887B
:10432000394628440123029ACDF800A00BF03FFE45
:104330002088411928460BF070FED9F8000041682A
:10434000002041F82840C3E70420C1E79000002086
:1043500070B5144C23688BB1197A814212D95A680E
:1043600052F8201071B1002542F820504A88186890
:104370000BF030FF216800200A7A0CE0C8211820D9
:10438000FFF746FC43F2020070BD4B6853F8203043
:1043900033B9401CC0B28242F7D808680BF00FFF57
:1043A000002070BD900000202DE9F0410D46040072
:1043B00090464FF0000609D00027E01C20F00300D3
:1043C000A04205D086211820FFF722FC0127F4E740
:1043D000CDB1114600200BF0DCFE0C3000EB850661
:1043E0008FB90A4F04F10C00AA003C60257260608E
:1043F00000EB85002060002160680AF047FE41461E
:1044000038680BF0C6FE3046BDE8F0819000002011
:1044100070B5084D286800280AD0002404E0204622
:10442000FFF796FF641CE4B22868007AA042F6D831
:1044300070BD000090000020094910B502460968CF
:10444000002049B10B7A934205D9496851F82210EE
:10445000002900D0081D10BDEE211820FFF7D8FB61
:10446000900000200A4910B502460968002059B1A1
:104470000B7A934207D9496851F82210002902D0DB
:1044800031F8040B084410BDFC211820FFF7C0FBD5
:1044900090000020094910B507480860084B11201A
:1044A00003EBC0040022C4F81025C4F81425401CF6
:1044B000C0B21428F4D310BD0000FEFF08F501407F
:1044C00000F0014070B520240021012320FA01F200
:1044D000D20720D04AB2002A10DB00BF4FEA5216A2
:1044E0004FEA860602F01F0506F1E02603FA05F5FD
:1044F000C6F88051BFF34F8FBFF36F8F0BDB02F015
:104500001F054FEA52124FEA820202F1E02203FA3B
:1045100005F5C2F8805201F10101A142D6D370BD68
:1045200070B541004FF0000301D51A490B608404B7
:104530004FF001014FF0FF3207D5174C6160C4F80E
:104540000032C4F80823154C2360C0F38034C0F354
:10455000C035AC4203D072211B20FFF759FB10F489
:10456000404F12D00E484160C0F808230D488160CA
:10457000C0F80032C0F808230B4C2360251D2960C9
:104580008160C0F8082323602960BDE87040FFF710
:1045900081BF000004E5014000D0004004D5004088
:1045A00000E0004000F0004000F5004070B50B4C0A
:1045B0000D462060FFF7B4FF2068FFF783FF00F08F
:1045C00079F800F059F9FFF765FF0BF094FE2846E3
:1045D00000F0AAF8BDE8704000F0C2B894000020D6
:1045E0002DE9FC5F2F4E83463068019001272E484D
:1045F0000AF0A5FCDFF8B08020B9002708F101001F
:104600000AF0B4FC294C00254FF00309012060603A
:10461000C4F80051C4F80451C6F800B02060DFF8B7
:1046200090A017E0DAF80000C00613D50E200BF0BA
:1046300035FEEFF31080009072B6C4F80493D4F8FE
:10464000000120B9D4F8040108B9FFF725F9009852
:1046500000B962B6D4F8000118B9D4F804010028F2
:10466000E0D0D4F804010028D0D137B101983060EF
:1046700008F101000AF063FC11E008F101000AF002
:104680005EFC0028BAD1C4F80893C4F80451C4F8F9
:1046900000510E200BF002FE03480AF067FC0020D8
:1046A000BDE8FC9F04E50040AC03002000E00040B2
:1046B00010ED00E010B508480AF054FC08B12421C0
:1046C00006E00548401C0AF04DFC002803D02821D4
:1046D0001D20FFF79DFA10BDAC03002070B51149F5
:1046E0000A68EAB100231D4601244A68521C4A6048
:1046F0000C2A00D34D600E7904FA06F20E681642B9
:104700000BD0EFF3108372B60C6894430C6003B9BE
:1047100062B649680160002070BD5B1C0C2BE4D3BD
:10472000052070BD98000020024800210160416012
:10473000704700009800002010B5084C617809B15E
:104740000F2010BDFFF734F82070FF2801D00020A3
:1047500010BD76211F20FFF75BFA0000A0000020AB
:104760000149002048707047A00000200649D1F898
:104770000001012807D1054800680022C0B2C1F835
:10478000002100F0DFB8704700D0004008D500409D
:10479000014901200860704704D5004010B5064863
:1047A000D0F800110029FBD0FFF7E0FFBDE8104072
:1047B0000D200BF082BD000000D0004070B50D2030
:1047C0000BF088FD084C0020C4F800010125C4F856
:1047D00004530D200BF071FD25604FF0E0216014B3
:1047E000C1F8000170BD000000D0004010B50D20E0
:1047F0000BF070FD0548012141600021C0F8001157
:10480000BDE810400D200BF058BD000000D0004066
:1048100010B505480AF093FB002803D1BDE810400D
:10482000FFF7CCBF10BD0000BC00002070B51546DE
:104830000E4604460BF079FDA84218D30020412112
:104840000FE000BF94F84230E35C335494F8422008
:10485000521CB2FBF1F301FB1322401C84F84220EE
:10486000C0B2A842EED3FFF7D3FF284670BDFFF7D2
:10487000CFFF002070BD00000E4910B5002081F868
:10488000420081F84100433181F8420081F8410043
:10489000433181F8420081F8410007480AF062FB89
:1048A0000548401C0AF05EFBFFF772FFBDE81040B0
:1048B000FFF7AEBF88170020BC0000200A46014663
:1048C0000148FFF7B3BF0000CB17002001480BF0F1
:1048D0002CBD0000881700200A4610B50146034889
:1048E000FFF7A4FF002800D0012010BD881700208A
:1048F00070B50C460646412903D9FB212320FFF75A
:1049000087F90E480068103840B20BF0FFFCC5B2C2
:104910000D200BF0FBFCC0B2854201D8012504E05C
:10492000002502E00DB1FFF739FF22463146044869
:10493000FFF77CFF0028F5D070BD000004ED00E01B
:10494000881700202DE9F0411F4F0646002500BFC3
:1049500057F8254020460BF0F4FC00B36D1CEDB277
:10496000032DF5D319480BF0ECFC00282AD017488A
:1049700043380BF0E6FC002824D0144843300BF0F9
:10498000E0FC00281ED0FFF731FF0F48001F0AF09F
:10499000D6FA233010D0B3212320FFF739F994F849
:1049A00041004121265414F8410F401CB0FBF1F2A4
:1049B00001FB12002070D5E7BDE8F0410248001F5E
:1049C0000AF0D4BABDE8F081C0000020CB17002067
:1049D00005498A8C824218BF7047002081F8220066
:1049E0004FF6FF7088847047181700200648074A62
:1049F000818C5288914205D190F8220000281CBF7A
:104A000000207047012070471817002098030020ED
:104A10000149488070470000980300200848094A6F
:104A2000818C5288914209D14FF6FF71818410F830
:104A3000221F19B10021017001207047002070472A
:104A40001817002098030020074901F1220091F86F
:104A50002220012A04BF002070470122027003486F
:104A6000008888841046704718170020980300209B
:104A70000749084B8A8C5B889A4206D191F822201C
:104A8000002A1EBF0160012070470020704700000F
:104A9000181700209803002009498A8CA2F57F434B
:104AA000FF3B03D0002101600846704791F82220A7
:104AB0000349012A1ABF016001200020704700004D
:104AC0001817002001490880704700009803002053
:104AD0000549002081F822004FF6FF7088840349C1
:104AE00008804880704700001817002098030020B5
:104AF0000549002081F822004FF6FF7088840349A1
:104B00000880488070470000181700209803002094
:104B10000D4B69B1012904BF9978814210D1D3F8B6
:104B20000F001060B3F8130090804FF00100704741
:104B3000587828B1D3F803001060B3F80700F3E702
:104B40004FF0000070470000AE030020074A29B173
:104B5000012904BF9178814202D004E0507810B15D
:104B60004FF0010070474FF000007047AE03002087
:104B70000C4A10B1012808D011E0507878B1D2F871
:104B800003000860B2F8070006E0107838B1D2F8E8
:104B900009000860B2F80D008880012070470020ED
:104BA00070470000AE0300200149FF208870704765
:104BB000AE0300200A4A012350B1012818BF7047F4
:104BC00013700868C2F809008888A2F80D007047C1
:104BD00053700868C2F803008888A2F8070070477D
:104BE000AE030020064910B1012803D006E0487842
:104BF00010B903E0087808B1012070470020704721
:104C0000AE0300200149012048717047CC0000200C
:104C10000149487470470000220A00200148C0780A
:104C200070470000CC000020014800797047000068
:104C3000CC000020104930B44A7C002A19BF0A7CFD
:104C4000002A002030BC08BF70474FF000024FF030
:104C50001F0C0A4B0A74427080F800C0D3F85A4106
:104C6000D3F85E51446085600C7C002CF2D130BCDE
:104C70004FF0010070470000220A0020D0080020F9
:104C800070B5094C06460D46207818B1AB21272097
:104C9000FEF7BEFF054900204874012104480BF0CF
:104CA0000CFF2672256370BDCC000020220A002074
:104CB000000A002001490120C8717047CC00002083
:104CC0002DE9F043824D85B02C78DDF830C0002C02
:104CD00075D1002A1CBF002BBCF1000F6FD0C5F8A6
:104CE00020C0C5E90F014FF00000C5E90623E871B7
:104CF000A871E870A87028716871764FE8812882E1
:104D0000786800F17806044608F0A2FF08F0D8FAA7
:104D100094F96A0009F028F804F1160009F046FB3E
:104D200004F1120009F036FBF07E09F09DFB3878A3
:104D300041F64C58002846D00420FEF731FE60684A
:104D4000404528BF962003D2012009F0C7FA4D2024
:104D500008F0A8FE786890F88001002818BF08F0D5
:104D600091FE94F86710012008F08EFC002804BF23
:104D700005B0BDE8F083387800280CBF032001207F
:104D800008F0E8FE544890E80E108DE80E10006917
:104D90000490387800280CBF504851480490684669
:104DA00008F006FE2088FFF75DFB68632088FFF7A8
:104DB00043FBA86394F8730068BB1CE0FFE7D421B1
:104DC0002720FEF725FF0320FEF7EAFD6068404537
:104DD00028BF962003D2012009F080FA4D2008F068
:104DE00061FE94F86610002008F04EFC0028C2D145
:104DF00005B0BDE8F083E06E68B1708D31888842FF
:104E000009D1B4F8701001220844708594F872003A
:104E1000E16EFDF7F1FB06F16001324891E80E10FA
:104E200000F5847888E80E10316FC0F82111716F99
:104E3000C0F82511FF20A87294F8671096F8129018
:104E4000B4F83880608F08291CD00BF0BDFB00BF80
:104E5000B9F1000F04BF001D80B2804538BF404645
:104E6000C0B2B17C002918BF04210844C0B26872E6
:104E7000B4F85010091D814208D240F26B1127206E
:104E8000FEF7C6FE04210BF09FFBE1E7387800280F
:104E90004FF0010014D000F055FB134800680328C0
:104EA00018BF0B280FD0114D28460DF01EFD30887D
:104EB000688020882880F07E287105B0BDE8F083E6
:104EC00000F0DAFBE9E740F27B112720FEF7A0FEB5
:104ED000CC00002008010020CC590000D5BF000004
:104EE000E98C0000D008002050150040220A002064
:104EF0002DE9F04706004748474D406800F1780427
:104F0000A86A90F8019018BF012E03D1A96B0AF08E
:104F100054F96870687800274FF0010850B10128F3
:104F200030D0022856D0032868D040F2C231272062
:104F3000FEF76EFE012E12D0E86A002845D0A9893E
:104F4000CA1CA96AFEF7D8FCE86AA8620122494691
:104F5000A86B0AF015FE022E08BFBDE8F087D4E961
:104F60001610491C40F10000C4E91610E079012830
:104F700001D1E77101E084F80780287ABDE8F047A5
:104F8000FEF734BC012E11D0E86AF0B1A989CA1C21
:104F9000A96AFEF7B1FCE86AA86200224946A86B3C
:104FA0000AF0EEFD022E08BFBDE8F087D4E9160234
:104FB000411C42F10000C4E91610E07901280CBF41
:104FC000E77184F80780BDE8F08740F209412720A7
:104FD000FEF71EFE012E06D0A86B0BF0A6F8022EDF
:104FE00008BFBDE8F087D4E91610491C40F1000065
:104FF000C4E91610E0790128BDD1BAE7012E08BF37
:10500000BDE8F087A86B0BF090F8287ABDE8F04770
:10501000FEF7ECBB08010020CC000020044800781B
:1050200000281CBF0C2070470020024948747047BC
:10503000CC000020220A0020184810B5017800F1A9
:105040003C0449B12178007849B102280ED040F2E1
:1050500097112720FEF7DCFD00F022FA0BE0012873
:1050600009D040F293112720FEF7D2FD6068D0F8F6
:10507000140108F0A9FC606890F87310002918BFAB
:1050800010BDC16E002908BF10BD90F8720000224B
:10509000BDE810401146FDF7AFBA0000CC0000207B
:1050A00070B5264C0546002908BF012D06D1E078D1
:1050B00000F10100C0B2E07001283CD8E169284647
:1050C0008847002837D0607948B1012D07D1206B7F
:1050D0004178002904BF007810F0100F2BD0A07980
:1050E00048BB17480178002908BF012D04D001B141
:1050F00015B14FF0000070BD1248017811F0100F8B
:1051000006D1206B007810F0100F08BF012001D0ED
:105110004FF00000E26A32B9A28922B111F0100FFB
:1051200008BF012101D04FF00001E28940EA0200EE
:10513000084308BF70BD012070BD0000CC000020F6
:1051400008010020DE0000202DE9F35FDFF8A482D3
:105150000027A8F13C04D8F804003D4600F1780A85
:105160002078022804D040F25B412720FEF750FD52
:10517000207C10F0400F07D14020A2690021904709
:10518000208A40F04000208200999B48002900F0CE
:1051900000814179491C41719AF8120008F032F9F6
:1051A00008F014F94FF0010998B99AF8120080B18B
:1051B000A06A417869B100789AF80710C0F3C0007E
:1051C000884206D184F8029002B0BDE8F05F00F09A
:1051D00067B9A06A4178A181002908BFE76203D0BE
:1051E000A06B0AF05BFFE062208A40F480702082AE
:1051F000E770D8F8046006F1780B96F824000128CF
:105200001DD109F071F8594630460BF0F6FAB0B1ED
:1052100098F800000028D8F804000CBF00F5C4700E
:1052200000F50170318841809BF8081001719BF8EE
:105230000910417180F80090207AFEF7D7FAA06A31
:105240009AF806100078C0F38000884249D0D8F858
:10525000040000F1780690F87D0000283DD0022877
:105260000ED1606B0AF058FC002855D0D6E9141016
:10527000491C40F10000C6E91410207AFEF7B6FA86
:10528000777198F8000000281CBF3079002809D0F9
:105290003771E289394642F01002E281A2694FF08B
:1052A00010009047F07890B1F770FFF7B7FB90B31C
:1052B000E289082042F00802E281A26900219047B9
:1052C000D6E91410491C40F10000C6E91410B07969
:1052D00001280CBFB77186F80690208A40F48060E0
:1052E0002082A16A9AF807300878C0F3C0029A4277
:1052F00048D1D8F8042000F0030002F17806012814
:1053000018BF022827D003281CBFA07940F0040052
:105310000CD0A07136E004E040F25D312720FEF7AA
:1053200077FC40F275312720FEF772FC86F8029078
:10533000228A484642F400622282E28942F0010257
:10534000E281A2699047F079012801D1F77119E053
:1053500086F8079016E04878B8B1218A41F40061D8
:105360002182E16A71B1FB2884BFA07940F010006E
:10537000CFD8E079002808BF4D4603D02020A2698D
:10538000002190470198B8B911E0F0790128DFD1E8
:10539000DCE78179491C81719AF81200002818BF56
:1053A00008F02AF8208A40F400702082EAE7012001
:1053B0000099FFF775FE48B1002D1CBF0020FFF7D4
:1053C00097FD02B0BDE8F05F00F06AB8002D1CBF89
:1053D0000120FFF78DFD002000F04EF9002D04BFE5
:1053E00002B0BDE8F09F022002B0BDE8F05FFFF719
:1053F0007FBD000008010020220A00202DE9F047AF
:10540000264E8146A6F13C057068884600F1780476
:105410002878012804D04FF483612720FEF7F8FB99
:10542000A078012760B10021A170EA89042042F030
:105430000402EA81AA6990473078002818BF2771D2
:10544000696A0326087836EA00000DD1607998B9B8
:10545000EA89022042F00202EA81AA699047686A5A
:10546000007836EA000007D0686A407800280EBF4E
:1054700067710220607100E0667138EA090004D0AB
:1054800001210020FFF70CFE18B1BDE8F04700F045
:1054900007B8BDE8F047002000F054B8080100202C
:1054A00010B508F07DF807F00BFF1348406890F83E
:1054B0002400012808BF08F017FF104C0021A26942
:1054C000208A9047226AA179A07890470C49487CAD
:1054D00070B1A1F5A970D0F85221D0F85631C0F8BA
:1054E0005A21C0F85E3101200874207AFEF77EF957
:1054F0000020207010BD000008010020CC0000201A
:10550000220A0020084810B50078022804D04FF481
:10551000E2712720FEF77CFB04490120C871BDE839
:105520001040FFF7BDBF0000CC000020220A002081
:1055300003480078002808BF7047FFF7B1BF00009C
:10554000CC0000202DE9F047DFF81C810646D8F892
:10555000044004F1780794F86710608F94F88A90FB
:10556000258F082911D00BF02FF800BFB9F1000FDB
:1055700004BF001D80B2854238BF284600F0FF09F5
:105580003A4D286BA86276B903E004210BF01CF8B1
:10559000ECE7687AA97A884205D194F8670094F814
:1055A0006610884204D0687A94F8671008F006FF05
:1055B000B87C002831D02E4808F0DCFB98F80000B9
:1055C00000280CBF0120002080F00101294801764D
:1055D000D7E91612C0E90412A0F58472A96A07F08F
:1055E0005FFE94F86700012808BF002210D002284F
:1055F00008BF01220CD0042808BF032208D00828C5
:1056000008BF022204D040F2B3310620FEF700FBAF
:105610004946012007F074FE04E0A86A08F0AAFBDE
:1056200007F04EFE3EB994F8670010F00C0018BF6A
:10563000282008F0FDF9606841F64C51884294F842
:1056400066304FF001024FF0000134BF012000200E
:1056500008F0A0FD94F82400012808BF08F050FECF
:1056600002202870BDE8F08708010020CC0000204F
:10567000D0080020D80900202DE9F04FDFF83C9336
:10568000020083B0A9F11800D9F80460A0F1240445
:105690000290A07A96F8661006F1780701BF627A48
:1056A000824296F867208A4201D008F087FE787916
:1056B000DFF80CB34FF008084FF0000A012568B17D
:1056C000012800F0C980022800F0DA80032800F0E9
:1056D000E78040F26E212720FEF79AFAD9F80400FD
:1056E00000F1780190F88430242B1CBF497B2429D9
:1056F00008D04FF002021F2B18BF202B2CD02229DC
:1057000051D07DE099F80010002990F8661012D071
:1057100090F8A601002877D0082918BF04296CD07A
:10572000082818BF042868D0012918BF012856D0BE
:105730004FF0020168E090F82601002864D00829A3
:1057400018BF042959D0082818BF042855D00129AA
:1057500018BF012843D0EBE7222924D099F8001084
:1057600000294DD090F8661090F8C00110F0040F99
:1057700018BF40460CD0082918BF04293DD008287E
:1057800018BF042839D0012918BF012827D0CFE736
:1057900010F0010F18BF2846EDD110F0020F18BF0E
:1057A0001046E8D130E099F8001049B390F866103F
:1057B00090F8C03190F85F0003EA000010F0040F89
:1057C00018BF40460ED0082918BF042915D0082854
:1057D00018BF042811D0012918BF0128A8D14FF003
:1057E000010111E010F0010F18BF2846EBD110F0B5
:1057F000020F18BF1046E6D106E04FF0080103E0A3
:1058000090F866100429F8D0B08E11F00C0F18BF74
:105810004FF429600AF0D8FE318E814238BF084625
:10582000ADF80400A6F84C000298FFF721F948B142
:10583000E289616A42F08002E281A2698020904799
:10584000FD7031E06A4601A9606B0AF050FB6062AE
:1058500010B197F83D1011B1C4F824B024E09DF8C0
:10586000001031B9A0F800A080F802A001210BF0CF
:1058700024F9BDF80410606A0BF0D9F814E000BFF9
:10588000B6F84C00ADF804006A4601A9606B0AF056
:105890002EFB606240B940F25F212720FEF7B8F985
:1058A0000298FFF7E5F818B3606A0423017821F045
:1058B00008010170BA7908EAC202114321F004011B
:1058C0000170FA794FF0030803EA8202114321F0D4
:1058D0001001017038EA010104BFC078022815D018
:1058E000606B0AF0D5FA002818BFAA4605D00DE073
:1058F0004FF41A712720FEF78BF9606A007838EAB6
:10590000000003D0FFF772F880F0010A606A0178A6
:1059100041EA0A110170797C00291CBF41780029F5
:105920002FD0284808F026FA99F8000000280CBF6C
:105930000121002124480176D7E91412C0E904129C
:10594000A0F58471626A07F0ABFC96F86600012846
:1059500008BF002210D0022808BF01220CD0042862
:1059600008BF032208D0082808BF022204D040F252
:10597000B3310620FEF74CF9FB21002007F0C0FCF4
:1059800003E008F0F7F907F09BFC706841F64C5112
:10599000884296F867304FF00102114634BF01206B
:1059A000002008F0F7FB2571606A01886182807829
:1059B0002075257003B0BDE8F08F000008010020BD
:1059C000000A0020D0080020D8090020055500005A
:1059D00049510000FD530000315500000000000057
:1059E0000A46074910B5097841B1064B997829B1A3
:1059F0000244D81C07F07EFB012010BD002010BD22
:105A00009C0300205118002000487047241A0020F1
:105A100004498A78824286BF084490F843010020F6
:105A2000704700005118002004498A78824286BFDE
:105A300001EB001083300020704700005118002057
:105A4000054A01EB410102EB41010268C1F80B215B
:105A50008088A1F80F017047511800202DE9F0410E
:105A60000E46074615460621304600F0CFFE1C4C78
:105A700098B1A17871B104F59D7011F0010F18BFB4
:105A800000F8015FA178490804D0457000F8025F72
:105A9000491EFAD10120BDE8F0813846314600F0B8
:105AA000D5FA102819D0A3780021002B15D9621837
:105AB00092F8032182420BD1102918BF08290CD07B
:105AC00004EB010080F83B514FF00100BDE8F0818C
:105AD00001F10101C9B28B42E9D80020BDE8F08193
